:020000040000FA
:1000000015EF00F0EA6A190EE96EEF500DE0060EEA
:10001000016E006A002EFED7012EFBD77B0E006E0C
:10002000002EFED7EF2EF3D7000CF86AD09EEA6AB6
:10003000E96AC150C00B0F09C16E070EB46E066AA3
:10004000076A086AFF0E096E0A6E330E0B6E0C6E9D
:100050004F0E0D6E8F0E0E6EC70E0F6E106A010ED4
:10006000116E020E126E040E136E080E146E100E38
:10007000156E200E166E400E176E800E186E000E56
:10008000956E956A8C6A936E936A8A6A086A0850BC
:10009000080852E3076A0750070849E3036A075054
:1000A000110FE96E000E0320EA6EEFCF1AF0085030
:1000B000016E04E0D8901A36012EFCD7956A1AC05A
:1000C0008CFF066A0650070829E3036A0750090FE8
:1000D000E96E000E0320EA6EEF50FF0A196E070E5C
:1000E000D88006541A6E19C000F01A50016E04E050
:1000F000D8900032012EFCD700A003D093928A82C0
:1001000002D093928A9293908A80100E006E002EF5
:10011000FED7000093908A90062AD4D793948A84BD
:10012000050E196E6FDF93948A94072AB4D7640E74
:0C013000196E68DF082AABD7A9D70300BE
:020000040030CA
:0E000000200C1E1E008381000FC00FE00F4079
:00000001FF
;PIC18F4550
