:1000000000308A00192800002E3084008313000875
:10001000031918280130F800F701F70B0D28F80B29
:100020000C284A30F700F70B13281628800B0A28F3
:100030000034840183131F30830583161F149F141B
:100040001F159F1107309C003F308312A10006301E
:10005000A2005B30A3004F30A4006630A5006D30D5
:10006000A6007D30A7004730A8007F30A900673088
:10007000AA00AB01AC01003083168600FF30880077
:10008000860183128601831608148312081C4A28ED
:100090000130AC002C0B7328AB012B08093C031C6E
:1000A000732821302B07840083130008AD008316CA
:1000B000860183122D0886000230AD009630AE0016
:1000C0000420AD0B5E28831608148312081C7128C7
:1000D0000230AD009630AE000420AD0B6A28AC01B2
:0A00E0007328AB0A4D284328630083
:02400E00713F00
:00000001FF
;PIC16F877A
