:1000000003308A005F2B0000FF00030E8301A10074
:100010000A08A0008A010408A2007708A300780853
:10002000A4007908A5007A08A600831383128C30F7
:100030008400801C1D288C182E2822088400230888
:10004000F7002408F8002508F9002608FA0020081F
:100050008A00210E8300FF0E7F0E09008A110A120A
:1000600061280A108A100A11820728340C340134DE
:1000700006340A108A100A118207313432343334BC
:100080004134343435343634423437343834393406
:1000900043342A343034233444341230C602031C2F
:1000A0006028463084008313FC3080050310800CE8
:1000B000800C0008031960285E280000800B5D2872
:1000C00008002F102F0883168700831207142E08AC
:1000D000C500C50AC50303197128FF30C6004D20AD
:1000E0006A282D08C6004D202F102F088316870080
:1000F000831207108C108A110A121D28CC30E237A7
:10010000D4224300D03AEC396514F539A91E2526CE
:100110007500D03AEC396514F539A91E252675000D
:100120008030831687008312AF007830F8000638DD
:1001300092004E30831692008C14C03083128B04D0
:100140008A110A12762B8A110A12772B3B3084000F
:10015000831300080319BA280130F800F701F70BE0
:10016000AF28F80BAE284A30F700F70BB528B828AF
:10017000800BAC2808004218BF280812C0280816B7
:10018000831608128312C218C7288812C828881636
:100190008316881283124219CF280813D028081713
:1001A000831608138312C219D7288813D8288817F2
:1001B0008316881300008312851583168511E028A5
:1001C000831285118316851183120800C3018316DB
:1001D000081600308312081A0130C30483168816EB
:1001E00000308312881A0130F7000310F70D7708EA
:1001F000C3048316081700308312081B0130F70070
:10020000F70DF70DFC30F7057708C3048316881740
:1002100000308312881B0130F700F70DF70DF70D42
:10022000F830F7057708C3044308F8000800831680
:100230008511851205118312851283168512081601
:1002400088160817881783120515831605110000F4
:10025000831285158316851100008312E620780825
:10026000C20085118316851100008312851583163F
:10027000851100008312E6207808C10085118316DD
:10028000851108128812081388138312420EF70092
:10029000F030F70577084104F8007808C100C11F65
:1002A000532983161F29BF08031D58298512592970
:1002B0008516831685120000831205118316051119
:1002C000000083128511831685118312400EC10030
:1002D0000F30C1054108C200BB2040080F39C100E2
:1002E000C200BB2008008316081288120813881366
:1002F00085118512051183128512831685128312CA
:1003000005118316051183128511831685110F308F
:100310008312BB00A6200130B1003108033C031C4E
:100320009B290330C200BB20C201BB200530BB00AB
:10033000A620B10A8D290230C200BB20C201BB2019
:100340000530BB00A620B1013108033C031CB129D4
:1003500031083120B200BF013208C0001721B10AB4
:10036000A4298A110A12782B3C0BB729BA294030EC
:10037000BD00BB29BD0101303B02BD073D088038EF
:10038000BE00BF013E08C000172108003A08073A26
:100390000319D4290B3A0319D929063A0319E1297B
:1003A000023A0319E729EC290130BB00BC00B42153
:1003B000F229BF010130C00017210230BB00A62086
:1003C000F2290130BB000230BC00B421F229BF0188
:1003D0001030C0001721F2290130BF003A08C000D8
:1003E0001721F2290800831603178C170C1400003C
:1003F000000083120C087F390319372A0313B10058
:1004000003170D080313B20003170F080313B300FB
:100410003108BA00C621320803178D0003133308D0
:1004200003178F0083168C170C1400000000831232
:100430000C0D0E0D7F390319372A0313B100031772
:100440000D080313B20003170F080313B30031089C
:10045000BA00C621320803178D00031333080317AF
:100460008F008D0A03198F0A0313F329031703134F
:100470008A110A127F2BB101A70A2708213C031811
:100480009C2A2A08FC3E03185F2A043EA52AEF3066
:1004900083168600831286005F2ADF30831686006B
:1004A000831286005F2ABF3083168600831286007F
:1004B0005F2A7F3083168600831286005F2A281CFD
:1004C0006B2A06080F390F3C031D6A2A28102908D9
:1004D000B100A9019B2A06080F390F3C0319962A7F
:1004E00006080839031D762AB2018A2A060804394B
:1004F000031D7D2A0130B2008A2A06080239031D35
:10050000842A0230B2008A2A06080139031D8A2A89
:100510000330B200320DF700F70DFC30F705770815
:100520002A073920F800A90028149B2AAA0A2A08B9
:10053000043C0319AA01A701FF3083168600831229
:100540003108F8008A110A12802B0A108A140A1145
:100550008207472A4D2A532A592A831603178C17D4
:100560000C14000000000318DC2A83120C087F39E9
:100570000313B20003170D080313B30003170F088A
:100580000313B4003208BA00C621330803178D00E4
:100590000313340803178F0083168C170C14000004
:1005A000000083120313B10BD62AD92A831603172E
:1005B000DC2AFB2A8316031783120C0D0E0D7F39DC
:1005C0000313B20003170D080313B30003170F083A
:1005D0000313B4003208BA00C621330803178D0094
:1005E0000313340803178F008D0A03198F0A0310B1
:1005F0000313B10BAD2A0800B9010408B800391083
:10060000831B3914320EF038B400B407E23EB50053
:10061000323EB70032080F39B507B507B707E93ED4
:10062000B600B607B607310E0F39B607B707B60DD5
:10063000B70DB709B70D31080F39B707B40D07303B
:10064000B3000A30B707B603031C222BB607B50365
:10065000031C262BB507B403031C2A2BB407B303D2
:10066000031C2E2B333084008313073038053813D6
:10067000840737300402031938170008F700031DF8
:10068000492B381B492B381A5B2BB819492B2030C2
:100690004C2BB81538123030F707B2010408B100FE
:1006A0003210831B32147708BA00C6213108840047
:1006B000831332188317840A381F392B08008401EA
:1006C00083131F308305AC01AB01AE01AD01FF30D8
:1006D000AF0083161F149F141F159F1107309C0035
:1006E0008312A7012810A901AA019028A328732921
:1006F0007E3003178D0000308F000313F3293B2A4F
:100700007808B000B0080319BC2B3008413C031D29
:10071000A02BAB0A0319AC0A0C30BA00C6218230F8
:1007200003178D0000308F0003100A300313B1004F
:10073000AD22103084002E08B2002D08B100FC223A
:100740003008423C031DBC2B2B080319AC03AB0340
:100750000C30BA00C621893003178D0000308F009D
:1007600003100A300313B100AD22103084002E08AC
:0C077000B2002D08B100FC227F2B6300BA
:02400E00713F00
:00000001FF
;PIC16F877A
;CRC=30A1  CREATED="12-dic-16 12:51"
