:1000000000308A007D2900000A108A100A11820738
:1000100028340C34013406340A108A100A1182077D
:100020003134323433344134343435343634423478
:1000300037343834393443342A3430342334443474
:100040000A108A100A1182075034723465347334EE
:1000500069346F346E346134723400340A108A109B
:100060000A11820755346E34613420347434653497
:1000700063346C34613400340A108A100A11820728
:100080006C3465347434723461343A342034253439
:1000900063340034273084008313000803195E287A
:1000A0000130F800F701F70B5328F80B52284A30BB
:1000B000F700F70B59285C28800B502800342E0ECF
:1000C000F039F7000F3008057704880000000814A5
:1000D0006928081000348810F030831688008312D5
:1000E00008150000081400000808080E0F39AE00BB
:1000F00008100000081400000808080E0F39AD00B1
:10010000081000308316880083122E0EF700F0309E
:10011000F70577082D04F8007808AD00AD1B6C28B2
:100120002B1C88102B1888140000081100000810E0
:100130002C0EAD000F30AD052D08AE005F202C0851
:100140000F39AD00AE005F20003400308316880008
:1001500083128810081108100F30A7004A200130C0
:10016000A5002508033C031CBD280330AE005F201A
:100170000530A7004A20A50AB1280230AE005F2052
:10018000A5012508033C031CCE2825080420A60051
:10019000AB012608AC006B20A50AC1288A110A12FF
:1001A0008E298A110A128F29280BD728DA28403085
:1001B000A900DB28A90101302702A90729088038F6
:1001C000AA00AB012A08AC006B20003426080C3AC8
:1001D0000319F128063A0319F928023A0319FF28EE
:1001E0000429AB010130AC006B200230A7004A208B
:1001F0000A290130A7000230A800D4200A29AB0147
:100200001030AC006B200A290130AB002608AC008E
:100210006B200A290034A501A00A2008213C0318FC
:100220006C292308FC3E03182F29043E7529EF3062
:1002300083168600831286002F29DF3083168600FE
:10024000831286002F29BF30831686008312860012
:100250002F297F3083168600831286002F29211CC8
:100260003B2906080F390F3C031D3A2921102208AB
:10027000A500A2016B2906080F390F3C0319662956
:1002800006080139031D4629A6015A290608023924
:10029000031D4D290130A6005A2906080439031D03
:1002A00054290230A6005A2906080839031D5A2984
:1002B0000330A600260DF700F70DFC30F705770890
:1002C00023070C20F800A20021146B29A30A23089D
:1002D000043C0319A301A001FF308316860083129A
:1002E0002508F8008A110A12B2290A148A100A1184
:1002F000820717291D2923292929840183131F30E7
:10030000830583161F149F141F159F1107309C002F
:100310008312A0012110A201A301A528D1288316D0
:10032000811301308312A700A800D420A50125085D
:100330002020A50AF700A600E62009302502031DAB
:1003400097290130A7000230A800D420A501250874
:100350002E20A50AF700A600E62009302502031D7D
:10036000A7290B297808A400A4080319C8290C3070
:10037000A600E620A50125083C20A50AF700A60056
:10038000E62007302502031DBB292408A600E6202D
:04039000B12963002C
:02400E00713F00
:00000001FF
;PIC16F877A
