:1000000000308A0087290000FF00030E8301A10051
:100010000A08A0008A010408A2007708A300780853
:10002000A4007908A5007A08A6007B08A70083131E
:1000300083128C308400001C1F280C1832282208E0
:1000400084002308F7002408F8002508F900260892
:10005000FA002708FB0020088A00210E8300FF0E0B
:100060007F0E09008A110A122F290A108A100A111C
:10007000820728340C34013406340A108A100A111D
:100080008207683468343A34253475342D346D343D
:100090006D343A34253475342D34733473343A3432
:1000A000253475340034F030831688008312081527
:1000B0000000081400000808080E0F39C0000810DE
:1000C0000000081400000808080E0F39BF000810CF
:1000D0000030831688008312400EF700F030F705D9
:1000E00077083F04F8000034400EF039F7000F3075
:1000F000080577048800000008147E2808100034E2
:10010000881053207808BF00BF1B81283D1C881031
:100110003D18881400000811000008103E0EBF00B2
:100120000F30BF053F08C00074203E080F39BF00E4
:10013000C000742000343930840083130008031990
:10014000AF280130F800F701F70BA428F80BA3281B
:100150004A30F700F70BAA28AD28800BA1280034FD
:1001600038080C3A0319BB28063A0319C328023A87
:100170000319D928DE28BD010130BE0080200230DD
:10018000B9009B20E4280130B9000230BA003A0BD4
:10019000CA28CD284030BB00CE28BB01013039022F
:1001A000BB073B088038BC00BD013C08BE00802076
:1001B000E428BD011030BE008020E4280130BD00DD
:1001C0003808BE008020E42800343908F8013802DD
:1001D0000318ED283808F700F928F7010830BA00AD
:1001E000B80DF70D390877020318F700F80DBA0BB0
:1001F000F028003478083608B8006430B900E520EB
:100200007708B60078083030031D0D29B71C142973
:10021000B7191429371A20301029B711371237149B
:10022000F8077808B800B0203608B8000A30B900DE
:10023000E5207708B60078083030031D2529B71966
:100240002929371C2929371A2030F8077808B800DF
:10025000B0203030B6073608B800B020003483161E
:100260000610013083128606A90A2908093C0318E2
:100270007F29A901AA0A2A083B3C03184C29AA0194
:10028000AB0A2B083B3C03184C29AB01AC0A2C08E9
:10029000173C03184C29AC010C30B800B020683072
:1002A000B800B0206830B800B0203A30B800B020B4
:1002B0002C08B6001B30B700FA200530B400340813
:1002C0003D20B40AF700B800B02009303402031D05
:1002D0005F292B08B6001B30B700FA200B30B500A1
:1002E00035083D20B50AF700B800B0200F303502C0
:1002F000031D70292A08B6001B30B700FA20CF3042
:100300008F002C308E000C108A110A121F288401D5
:1003100083131F30830583161F149F141F159F110D
:1003200007309C008312A901AA01AB01AC01B530D2
:100330009000CF308F002C308E0083160C14C0300C
:1003400083128B04003083168600003088008312ED
:10035000881008110810A8018B1BA8178B130F30E9
:10036000B9009B20A81B8B170130AD002D08033C62
:10037000031CCE29A8018B1BA8178B130330C000C8
:100380007420A81B8B17A8018B1BA8178B13053093
:10039000B9009B20A81B8B17AD0AB629A8018B1B9F
:1003A000A8178B130230C0007420A81B8B17AD0157
:1003B0002D08033C031CEB292D083520AE00A801B5
:1003C0008B1BA8178B13BD012E08BE008020A81B15
:0A03D0008B17AD0AD829EB29630052
:02400E00713F00
:00000001FF
;PIC16F877A
