:1000000000308A005C2D00000A108A100A110B3E95
:1000100003188A0A820000340034003400340034AB
:10002000003400345F3400340034003403340034CE
:100030000334003414343E3414343E341434243441
:100040002A347F342A341234433433340834663447
:100050006134363449345534223450340034053454
:1000600003340034003400341C342234413400346E
:100070000034413422341C340034143408343E3407
:1000800008341434083408343E3408340834003456
:100090005034303400340034083408340834083420
:1000A00008340034603460340034003420341034B8
:1000B0000834043402343E345134493445343E3437
:1000C0000034043402347F34003442346134513417
:1000D00049344634223441344934493436341834AE
:1000E000143412347F3410342734453445344534C5
:1000F00039343E34493449344934323401340134DA
:100100007134093407343634493449344934363487
:1001100026344934493449343E3400343634363494
:10012000003400340034563436340034003408349B
:100130001434223441340034143414341434143458
:100140001434003441342234143408340234013479
:100150005134093406343E344134593455345E3414
:100160007E340934093409347E347F3449344934C7
:10017000493436343E3441344134413422347F34BE
:100180004134413441343E347F3449344934493474
:1001900041347F3409340934093401343E34413464
:1001A000413449343A347F340834083408347F34D5
:1001B000003441347F3441340034303440344034EE
:1001C00040343F347F3408341434223441347F3493
:1001D00040344034403440347F3402340C340234F0
:1001E0007F347F340234043408347F343E34413465
:1001F000413441343E347F340934093409340634FF
:100200001E342134213421345E347F3409340934DE
:10021000093476340A148A100A11820726344934C4
:10022000493449343234013401347F3401340134E7
:100230003F344034403440343F341F342034403461
:1002400020341F347F342034103420347F34413440
:1002500022341C34223441340734083470340834D6
:1002600007346134513449344534433400347F34E5
:10027000413400340034023404340834103420345F
:100280000034003441347F34003404340234013407
:100290000234043440344034403440344034003478
:1002A000013402340434003420345434543454348B
:1002B00078347F3444344434443438343834443427
:1002C00044344434443438344434443444347F343F
:1002D00038345434543454341834043404347E34AC
:1002E0000534053408345434543454343C347F34A5
:1002F0000834043404347834003444347D344034D5
:1003000000342034403444343D3400347F341034DD
:10031000283444340034003441347F3440340034D1
:100320007C3404347834043478347C340834043431
:1003300004347834383444344434443438347C34E9
:100340001434143414340834083414341434143485
:100350007C3400347C340834043404344834543459
:10036000543454342034043404343F344434443456
:100370003C344034403420347C341C342034403409
:1003800020341C343C344034303440343C34443425
:1003900028341034283444340C345034503450341D
:1003A0003C344434643454344C34443400340834DD
:1003B000363441344134003400347F340034003466
:1003C00041344134363408340034023401340234C8
:1003D00004340234CD080319F229831686108312DF
:1003E0008614F62983160610831206148316061245
:1003F000831206128316880183124E0888000000BB
:100400008316861283128616052A062A0000831692
:100410008612831286128316061083120610831624
:100420008610831286100034F701F8013B08031090
:100430003C18F707F70CF80CBC18F707F70CF80C8A
:100440003C19F707F70CF80CBC19F707F70CF80C78
:100450003C1AF707F70CF80CBC1AF707F70CF80C66
:100460003C1BF707F70CF80CBC1BF707F70CF80C54
:100470000034201020088316870083120714831687
:1004800086128312861283160610831206108316B4
:100490008610831286108316061183120611CD0171
:1004A000C030CE00EA210130CD00C030CE00EA21BC
:1004B000CD014030CE00EA210130CD004030CE00E9
:1004C000EA21CD01B830CE00EA210130CD00B830AC
:1004D000CE00EA21290B762ACD013F30CE00EA2159
:1004E0000130CD003F30CE00EA217F2ACD013E30E1
:1004F000CE00EA210130CD003E30CE00EA21AA0133
:10050000AB012B08073C031CC52A83160611831276
:100510000611CD014030CE00EA210130CD0040303F
:10052000CE00EA212B08B838AD00CD012D08CE0051
:10053000EA212B08B838AD000130CD002D08CE00DF
:10054000EA218316061183120615AC012C083F3CE4
:10055000031CC32AFF30BB002A08BC001422780801
:10056000AD00CD017808CE00EA21FF30BB002A089B
:10057000BC0014227808AD000130CD007808CE0010
:10058000EA21AC0AA62AAB0A812A8A110A127C2D1A
:10059000FF3083168800061283120616CA08031954
:1005A000D62A8316861083128614DA2A831606103A
:1005B0008312061400008316861283128616E02A20
:1005C000E12AFF308316880083120808CB008316C7
:1005D0008612831286128316061083120610831663
:1005E0008610831286104B08F80000344810440827
:1005F0003F3C0318FE2A4030C402481483160611FB
:1006000083120611C4134417003048180130C90082
:10061000CD004408CE00EA21003048180130C9005E
:10062000450CF700F70CF70C1F30F7057708BF39BA
:10063000B838CC004908CD004C08CE00EA2183161A
:10064000061183120615003048180130C900CA008F
:10065000C822003048180130C900CA00C8227808F2
:10066000C700460B432B45080739C9000130F70086
:100670004908F8000319402B0310F70DF80B3C2B29
:100680007708C704532B45080739C9000130F70024
:100690004908F8000319502B0310F70DF80B4C2BE9
:1006A0007708FF3AC705831606118312061100303A
:1006B00048180130C900CD004408CE00EA21831655
:1006C000061183120615003048180130C900CD000C
:1006D0004708CE00EA2100340130BD00BE00C3014E
:1006E00034083602C4004408C41F782B4408003C78
:1006F000FA01BB007A08BC0035083702C400440880
:10070000C41F842B4408003CFA01B9007A08BA00DF
:100710003408360203188E2BFF30BD00350837022F
:100720000318942BFF30BE003A083C02031CE02B58
:10073000031D9E2B39083B02031CE02B0310B90D4F
:10074000BA0D3B083902F7003A08FA003C08031CCE
:100750003C0FFA027708BF007A08C0003B083F024E
:10076000C1004008C2003C08031C3C0FC202BC0888
:10077000031DBE2B43083B02031CDF2B3408C400BF
:100780003508C5003808C600F622C01FD12B39082D
:10079000BF073A0803183A0FC0073D083407B400F2
:1007A000DD2B4108BF0742080318420FC0073D0870
:1007B0003407B4003E083507B500C30AB72B212C17
:1007C0000310BB0DBC0D39083B02F7003C08FA00D2
:1007D0003A08031C3A0FFA027708BF007A08C000F3
:1007E00039083F02C1004008C2003A08031C3A0F12
:1007F000C202BA08031D002C43083902031C212C35
:100800003408C4003508C5003808C600F622C01FE9
:10081000132C3B08BF073C0803183C0FC0073E08D9
:100820003507B5001F2C4108BF0742080318420FC7
:10083000C0073D083407B4003E083507B500C30AB9
:10084000F92B0034AD080319552C2B082902031885
:100850002E2C2908B0002B08B100322C2B08B00038
:100860002908B1002C082A0203183B2C2A08B200E0
:100870002C08B3003F2C2C08B2002A08B300300823
:100880003102031C542C3208AF002F083302031C22
:10089000522C3008C4002F08C5002E08C600F622CE
:1008A000AF0A452CB00A3F2C812C2908B4002A0835
:1008B000B5002B08B6002A08B7002E08B8006C2334
:1008C0002908B4002C08B5002B08B6002C08B70086
:1008D0002E08B8006C232908B4002A08B50029089E
:1008E000B6002C08B7002E08B8006C232B08B40003
:1008F0002A08B5002B08B6002C08B7002E08B8004F
:100900006C238A110A12992D2C08FA002B088400F6
:1009100083137A18831780080319592D2C08FA00BD
:100920002B08840083137A1883170008523C031C99
:10093000B72C2C08FA002B08840083137A1883172D
:1009400020300002BA00BB000530BC001422780839
:10095000BB00F9000530F8003330840083137908B8
:1009600004208000F90A840AF80BAF2CE52C2C082F
:10097000FA002B08840083137A18831700087E3C42
:10098000031CE02C2C08FA002B08840083137A182F
:10099000831753300002BA00BB000530BC0014229C
:1009A0007808BB00F9000530F80033308400831369
:1009B00079080A218000F90A840AF80BD82CE52C62
:1009C000B301B401B501B601B7012C08FA002B0838
:1009D000840083137A18831700080A3A0319F42C49
:1009E000073A0319FD2CFF2C0730BB002D08BC0073
:1009F000142201307807AA07542DA901542D05307F
:100A0000BB002D08BC001422780829077F3C03187E
:100A1000122DA9010730BB002D08BC0014220130A3
:100A20007807AA07AF012F08043C031C542DB0011E
:100A30003008063C031C502D33302F0784008313ED
:100A40000008B800F7003008F80003192B2D031038
:100A5000F70CF80B272D771C4E2DB1012D08310214
:100A600003184E2DB2012D08320203184C2D320806
:100A70002907B8003008BB002D08BC0014227808F4
:100A80002A073107BA003808C4003A08C5002E0802
:100A9000C600F622B20A332DB10A2E2DB00A182D47
:100AA000AF0A2D08A907132DAB0A0319AC0AA90A2E
:100AB000842C8A110A12A42D840183131F3083050C
:100AC00083161F149F141F159F1107309C00FF30C1
:100AD0008312A0004C30A1006130A2006230A3005C
:100AE0006F30A4005430A5004530A6004330A70065
:100AF000A8010130A900392A0A30B400B50032300B
:100B0000B600B7000130B8006C233230B4000A30B0
:100B1000B500B6003230B7000130B8006C230A309F
:100B2000A900AA003230AB00AC00AD010130AE002C
:100B3000222C3C30A9000A30AA00AC012130AB00C5
:0C0B40000130AD00AE00842CA42D630039
:02400E00713F00
:00000001FF
;PIC16F877A
