:1000000002308A00842A0000FF00030E8301A10051
:100010000A08A0008A010408A2007708A300780853
:10002000A4007908A5007A08A600831383120B1E8A
:100030001B288B182C28220884002308F70024088A
:10004000F8002508F9002608FA0020088A00210E89
:100050008300FF0E7F0E09008A110A1237280A104A
:100060008A100A11820728340C3401340634013016
:10007000A7008B108A110A121B28C3376E3AE53786
:10008000BA1275008C244E2A4529D22AD021C927BC
:100090004E002E3084008313000803195D280130C0
:1000A000F800F701F70B5228F80B51284A30F700F7
:1000B000F70B58285B28800B4F280800351862285A
:1000C000081263280816831608128312B5186A28C6
:1000D00088126B28881683168812831235197228A5
:1000E000081373280817831608138312B5197A2882
:1000F00088137B28881783168813000083128515C0
:100100008316851183288312851183168511831226
:100110000800B6018316081600308312081A013051
:10012000B6048316881600308312881A0130F7004F
:100130000310F70D7708B6048316081700308312F2
:10014000081B0130F700F70DF70DFC30F7057708B5
:10015000B6048316881700308312881B0130F7001D
:10016000F70DF70DF70DF830F7057708B6043608E8
:10017000F800080083168511851205118312851277
:100180008316851208168816081788178312051516
:100190008316051100008312851583168511000052
:1001A000831289207808B500851183168511000017
:1001B0008312851583168511000083128920780823
:1001C000B40085118316851108128812081388134C
:1001D0008312350EF700F030F70577083404F80085
:1001E0007808B400B41FF6288316C228B208031D8D
:1001F000FB288512FC2885168316851200008312C1
:1002000005118316051100008312851183168511CF
:100210008312330EB4000F30B4053408B5005E20ED
:1002200033080F39B400B5005E20080083160812A9
:1002300088120813881385118512051183128512FF
:1002400083168512831205118316051183128511F9
:10025000831685110F308312AE0049200130A900AA
:100260002908033C031C3E290330B5005E20B5017C
:100270005E200530AE004920A90A30290230B500C1
:100280005E20B5015E200530AE004920A901290895
:10029000033C031C542929082F20AA00B2012A0874
:1002A000B300BA20A90A47298A110A12922A831692
:1002B000011783120B16C0308B048A110A12932A7D
:1002C0002F0B632966294030B0006729B001013047
:1002D0002E02B00730088038B100B2013108B300F7
:1002E000BA2008002D08073A031980290B3A031990
:1002F0008529063A03198D29023A03199329982969
:100300000130AE00AF0060219E29B2010130B30080
:10031000BA200230AE0049209E290130AE000230E2
:10032000AF0060219E29B2011030B300BA209E298F
:100330000130B2002D08B300BA209E2908008316B0
:1003400003178C170C14000000000318CE29831229
:100350000C087F390313AA0003170D080313AB0021
:1003600003170F080313AC002A08AD0072212B08F5
:1003700003178D0003132C0803178F0083168C17A7
:100380000C140000000083120313A90BC829CB2909
:1003900083160317CE29ED298316031783120C0D3C
:1003A0000E0D7F390313AA0003170D080313AB00CA
:1003B00003170F080313AC002A08AD0072212B08A5
:1003C00003178D0003132C0803178F008D0A0319E0
:1003D0008F0A03100313A90B9F298A110A12A22A5C
:1003E0002C08F8012B020318F8292B08F700042A1F
:1003F000F7010830AD00AB0DF70D2C08770203189C
:10040000F700F80DAD0BFB29080078082908AB00B0
:100410006430AC00F0217708A90078083030031D63
:10042000182AAA1C1F2AAA191F2A2A1A20301B2A96
:10043000AA112A122A14F8077808AD007221290897
:10044000AB000A30AC00F0217708A9007808303002
:10045000031D302AAA19342A2A1C342A2A1A2030C9
:10046000F8077808AD0072213030A9072908AD00DF
:1004700072218A110A12A72A831603178C170C14EB
:100480000000000083120C087F390319802A03132F
:10049000A90003170D080313AA0003170F0803137D
:1004A000AB002908AD0072212A0803178D00031341
:1004B0002B0803178F0083168C170C140000000004
:1004C00083120C0D0E0D7F390319802A0313A90026
:1004D00003170D080313AA0003170F080313AB003B
:1004E0002908AD0072212A0803178D0003132B0879
:1004F00003178F008D0A03198F0A03133C2A031771
:1005000003138A110A12BA2A840183131F30830548
:10051000A70183161F149F141F159F1107309C00FD
:10052000831216295729A8012808643C031CC32AF2
:100530003D3003178D0000308F0003100730031388
:10054000A9009F292808A9001B30AA00052A043009
:10055000A900FA30AE004920A90BA92A0C30AD0041
:100560007221270BC12A423003178D0000308F0003
:1005700003133C2A6430AE0049200C30AD007221D8
:0A058000A701A80A942A932A630039
:02400E00713F00
:00000001FF
;PIC16F877A
;CRC=FBA0  CREATED="12-dic-16 13:15"
