:1000000000308A001B2800002D3084008313000874
:10001000031918280130F800F701F70B0D28F80B29
:100020000C284A30F700F70B13281628800B0A28F3
:100030008A110A125728840183131F3083058316FF
:100040001F149F141F159F1107309C003F3083120F
:10005000A1000630A2005B30A3004F30A400663040
:10006000A5006D30A6007D30A7004730A8007F3086
:10007000A9006730AA00AB01003083168600860114
:1000800083128601AB012B08093C031C5B2821303D
:100090002B07840083130008AC00831686018312AB
:1000A0002C0886000230AC00FA30AD000428AC0BFE
:0A00B0005428AB0A432842286300DD
:02400E00713F00
:00000001FF
;PIC16F877A
