:1000000000308A0084290000FF00030E8301A10054
:100010000A08A0008A010408A2007708A300780853
:10002000A4007908A5007A08A6007B08A70083131E
:1000300083120B1E1D288B183028220884002308E9
:10004000F7002408F8002508F9002608FA00270818
:10005000FB0020088A00210E8300FF0E7F0E09009E
:100060008A110A125D280A108A100A1182072834A0
:100070000C34013406340A108A100A1182070C3439
:1000800043346F346E34743465346F343A34253409
:100090004C34753400340A108A100A1182070C346B
:1000A00049346E3474346534723472347534703457
:1000B000633469346F346E3400340130A8008B101F
:1000C0008A110A121D283630840083130008031990
:1000D00077280130F800F701F70B6C28F80B6B2834
:1000E0004A30F700F70B72287528800B6928003416
:1000F0003D0EF039F7000F30080577048800000046
:1001000008148228081000348810F0308316880004
:10011000831208150000081400000808080E0F39A3
:10012000BD0008100000081400000808080E0F3970
:10013000BC00081000308316880083123D0EF700C3
:10014000F030F70577083C04F8007808BC00BC1BC9
:1001500085283A1C88103A188814000008110000FD
:1001600008103B0EBC000F30BC053C08BD007820D9
:100170003B080F39BC00BD007820003400308316E6
:10018000880083128810081108100F30B600632011
:100190000130AB002B08033C031CD6280330BD0004
:1001A00078200530B6006320AB0ACA280230BD00B3
:1001B0007820AB012B08033C031CE7282B083320D5
:1001C000AC00BA012C08BB008420AB0ADA288A11E3
:1001D0000A12942935080C3A0319F528063A03192E
:1001E000FD28023A031913291829BA010130BB006E
:1001F00084200230B60063201E290130B600023090
:10020000B700370B042907294030B8000829B80186
:1002100001303602B80738088038B900BA01390809
:10022000BB0084201E29BA011030BB0084201E2987
:100230000130BA003508BB0084201E290034B40107
:100240000408B3003410831B34142D0EF038AF00B3
:10025000AF07E23EB000323EB2002D080F39B007C2
:10026000B007B207E93EB100B107B1072C0E0F3954
:10027000B107B207B10DB20DB209B20D2C080F399A
:10028000B207AF0D0730AE000A30B207B103031C4E
:100290004529B107B003031C4929B007AF03031C6C
:1002A0004D29AF07AE03031C51292E308400831360
:1002B0000730330533138407323004020319331730
:1002C0000008F700031D6C29331B6C29331A7E29A3
:1002D000B3196C2920306F29B31533123030F7076A
:1002E000AD010408AC002D10831B2D147708B50058
:1002F000EA202C08840083132D188317840A331FE7
:100300005C298A110A12B529840183131F308305E1
:1003100083161F149F141F159F1107309C00831212
:10032000A801A901AA01BE288316011783120B1682
:10033000C0308B04AA01A901AA08031DD1292908EC
:10034000643C031CD129AB012B083B20AB0AF7000E
:10035000B500EA2008302B02031DA42910308400C8
:100360002A08AD002908AC001F290230AB00FA3082
:10037000B6006320AB0BB729280BCD29AB012B08A6
:100380004B20AB0AF700B500EA200D302B02031D0D
:10039000BF296430B6006320A801A90A0319AA0A7C
:0603A0009C299A2963006C
:02400E00713F00
:00000001FF
;PIC16F877A
