:1000000008308A0000280000FF00030E8301A100D1
:100010000A08A0008A010408A2007708A300780853
:10002000A4007908A5007A08A600831383128C30F7
:100030008400801C1D288C182E2822088400230888
:10004000F7002408F8002508F9002608FA0020081F
:100050008A00210E8300FF0E7F0E09008A110A120A
:1000600061280A108A100A11820728340C340134DE
:1000700006340A108A100A118207313432343334BC
:100080004134343435343634423437343834393406
:1000900043342A343034233444341230D002031C25
:1000A0006028503084008313FC3080050310800CDE
:1000B000800C0008031960285E280000800B5D2872
:1000C00008002F102F0883168700831207142E08AC
:1000D000CF00CF0ACF0303197128FF30D0004D2085
:1000E0006A282D08D0004D202F102F088316870076
:1000F000831207108C108A110A121D28CC20C227E7
:10010000D4224300CC20C227D422C3060A00F432F2
:100110006336611DA5310000F4326336611DA531DF
:100120000D0500004137E73AEC37BA12CC3A00002F
:100130004137E73AEC37BA12CC3A0D0500004137A7
:10014000E73AEC37BA12CC3A00014137E73AEC37DC
:10015000BA12CC3A0D0500014137E73AEC37BA1232
:10016000CC3A00014137E73AEC37BA12CC3A0D05E8
:1001700000003B308400831300080319CD280130B0
:10018000F800F701F70BC228F80BC1284A30F70036
:10019000F70BC828CB28800BBF2808004218D228AC
:1001A0000812D3280816831608128312C218DA28F8
:1001B0008812DB2888168316881283124219E228D7
:1001C0000813E3280817831608138312C219EA28B4
:1001D0008813EB288817831688130000831285156F
:1001E00083168511F32883128511831685118312D6
:1001F0000800C3018316081600308312081A013064
:10020000C3048316881600308312881A0130F70061
:100210000310F70D7708C304831608170030831204
:10022000081B0130F700F70DF70DFC30F7057708D4
:10023000C3048316881700308312881B0130F7002F
:10024000F70DF70DF70DF830F7057708C3044308ED
:10025000F800080083168511851205118312851296
:100260008316851208168816081788178312051535
:100270008316051100008312851583168511000071
:100280008312F9207808C2008511831685110000B9
:10029000831285158316851100008312F9207808D2
:1002A000C10085118316851108128812081388135E
:1002B0008312420EF700F030F70577084104F8008A
:1002C0007808C100C11F662983163229BF08031DA3
:1002D0006B2985126C2985168316851200008312FE
:1002E00005118316051100008312851183168511EF
:1002F0008312400EC1000F30C1054108C200CE205C
:1003000040080F39C100C200CE2008008316081231
:10031000881208138813851185120511831285121E
:100320008316851283120511831605118312851118
:10033000831685110F308312BB00B9200130B10044
:100340003108033C031CAE290330C200CE20C20199
:10035000CE200530BB00B920B10AA0290230C2006E
:10036000CE20C201CE200530BB00B920B10131083A
:10037000033C031CC42931083120B200BF013208FC
:10038000C0002A21B10AB7298A150A1220288A1525
:100390000A1223288030831687008312AF0078303A
:1003A000F800063892004E30831692008C14C0304C
:1003B00083128B048A150A12262880308318C406FB
:1003C000C901CA014008C8004408C8063F0803190B
:1003D000CD2AC700F70043080319D62AC70203191C
:1003E000722A031C302A4408CD00CD174508CC00E2
:1003F0004608CB00CA010310CD0CCC0CCB0CCA0CA8
:10040000C70BFA29C81F072A4914EA2A49104710BE
:100410004916423084008313FF2A4912C81B1A2A46
:10042000471C252ACD0CCC0CCB0CCA0CF70A03199F
:10043000E52A252ACD1B282A0310CA0DCB0DCC0D89
:10044000CD0DF7030319E52A1A2A4917922A4913F1
:100450004008C800C81F2E2ACD17DE2ACD13DE2A79
:100460004308C700F7003F08C7024008CD00CD177A
:100470004108CC004208CB00CA010310CD0CCC0CC3
:10048000CB0CCA0CC70B3C2AC81F492AC914EA2A3C
:10049000C9104710C916463084008313FF2AC912B9
:1004A000C81B5C2A471C672ACD0CCC0CCB0CCA0C91
:1004B000F70A0319E52A672ACD1B6A2A0310CA0D19
:1004C000CB0DCC0DCD0DF7030319E52A5C2AC91716
:1004D000922AC9134408C800C81F702ACD17DE2A03
:1004E000CD13DE2A4408CD00CD174508CC004608C0
:1004F000CB00C81F7F2ACD134915EA2A4911CA012A
:100500004710423084008313FF2AC81BA82A4008E2
:10051000C800471C922ACD0CCC0CCB0CCA0CF70A95
:100520000319E52ACA1FA32ACB0A031DA32ACC0A52
:10053000031DA32ACD0A031DA32ACD0CCC0CCB0C82
:10054000F70A0319E52A491B272AC91B692AC72A62
:100550008030CD06CD1FB02AEA2A4408C800BD2A43
:100560004008C800CD08031DBD2ACC08031DBD2AC4
:10057000CB08031DBD2AF701DE2ACD1BC72A0310B5
:10058000CA0DCB0DCC0DCD0DF70BBD2AE52AC81F2A
:10059000CB2ACD17DE2ACD13DE2A4308F700440804
:1005A000CD004508CC004608CB00DE2A3F08F70006
:1005B0004008CD004108CC004208CB004D08F800AF
:1005C0004C08F9004B08FA001D2BF701F801F9015E
:1005D000FA011D2BCA01CB09CC09CD09CA09CA0AE7
:1005E000031DF82ACB0A031DF82ACC0A0319CD0AE9
:1005F0004918062AC918482A49197E2AAD2A00082E
:10060000CB07031C092BCC0A031D092BCD0A0319A8
:10061000471484030008CC07031C112BCD0A0319CF
:10062000471484030008801F803ACD07031847143D
:10063000491A0D2AC91A4F2A852A08008314380836
:10064000C2003708C1003608C0003508BF00C60127
:10065000C501C401C301DD217708BB007808BC00D7
:100660007908BD007A08BE003E08C2003D08C100FE
:100670003C08C0003B08BF00C6018030C5006D309B
:10068000C4008930C3003F080319B32BC7004308D7
:100690000319B32BC7070318542B7F30C702031C61
:1006A000B32B0319B32B582B8130C7070318B32B77
:1006B0004708F700F801F901FA014008CB00CB1711
:1006C0004108CA004208C9001830C700C801491CC7
:1006D000812B4608FA07031C732BF90A031D732BA1
:1006E000F80A0319C8174508F907031C7A2BF80AFA
:1006F0000319C8174408C100C1174108F8070318B7
:10070000C817C80DF80CF90CFA0CCB0CCA0CC90CA4
:100710000310C70B662B0130F7070318B32BF81B28
:10072000982BCB0DFA0DF90DF80DF7030319B32B28
:10073000CB1FA92BFA0A031DA92BF90A031DA92B0C
:10074000F80A031DA92BF80CF90CFA0CF70A031987
:10075000B32B4008C8004408C806C81FB12BF817BF
:10076000B72BF813B72BF701F801F901FA01770855
:10077000BB007808BC007908BD007A08BE003E08BE
:10078000C2003D08C1003C08C0003B08BF00C601D4
:10079000C5013430C4008630C3003F080319922CD1
:1007A000CB0043080319922CCB02031CDC2B7F30B7
:1007B000CB070318922CE22B8130CB02031C922C26
:1007C0000319922C4B08F700F801F901FA01CA014C
:1007D0004008C900C9174108C8004208C7001930BD
:1007E000CB004608C7020318052C0130C8020318C5
:1007F000052CC9020318052CCA020318052CCA0AC5
:10080000C90AC80A4608C707372C4508C802031892
:10081000202C0130C9020318202CCA020318202CF6
:10082000CA0AC90A4508C8074608C707031C372C67
:10083000C80A031D372CC90A031D372CCA0A372CD6
:1008400044088038C9020318362C0130CA02031844
:10085000362CCA0A44088038C9074508C807031C53
:10086000142CC90A031D142CCA0A142C7A14CB0B9D
:100870003A2C452C0310C70DC80DC90DCA0D031025
:10088000FA0DF90DF80DCC0DF12B4C1C4D2C03106D
:10089000F80CF90CFA0CCC0C502CF7030319922C21
:1008A000CC1B792C0310C70DC80DC90DCA0D460805
:1008B000C7020318652C0130C8020318652CC90251
:1008C0000318652CCA02031C882C4508C8020318AB
:1008D000702C0130C9020318702CCA02031C882C2A
:1008E00044088038C9020318792C0130CA02031C5D
:1008F000882CFA0A031D882CF90A031D882CF80A93
:10090000031D882CF70A0319922CF80CF90CFA0C29
:100910004008CB004408CB06CB1F902CF817962C30
:10092000F813962CF701F801F901FA017708BB00DA
:100930007808BC007908BD007A08BE0083103E0824
:10094000C2003D08C1003C08C0003B08BF00C60112
:10095000C5012F30C4008830C300DD217A08BE00F5
:100960007908BD007808BC007708BB008E30F7001E
:100970003B08F7023C08F9003D08F800F917F708B2
:100980000319CD2C0310F908031DC92CF80803190D
:10099000CD2CF90CF80CF70BC22CBC1FD42CF80989
:1009A000F909F80A0319F90A7908BA007808B900B0
:1009B0003A08AE003908AD0008003C0BE02CE32CEF
:1009C0004030BD00E42CBD0101303B02BD073D08B5
:1009D0008038BE00BF013E08C0002A2108003A0846
:1009E000073A0319FD2C0B3A0319022D063A031995
:1009F0000A2D023A0319102D152D0130BB00BC0041
:100A0000DD241B2DBF010130C0002A210230BB00B4
:100A1000B9201B2D0130BB000230BC00DD241B2D92
:100A2000BF011030C0002A211B2D0130BF003A0841
:100A3000C0002A211B2D0800831603178C170C14E5
:100A40000000000083120C087F390319602D031386
:100A5000B10003170D080313B20003170F080313A7
:100A6000B3003108BA00EF24320803178D000313D6
:100A7000330803178F0083168C170C140000000036
:100A800083120C0D0E0D7F390319602D0313B10075
:100A900003170D080313B20003170F080313B30065
:100AA0003108BA00EF24320803178D00031333080E
:100AB00003178F008D0A03198F0A03131C2D0317C8
:100AC00003138A150A123E28831603178C170C1479
:100AD0000000000083120C087F390319AA2D0313AC
:100AE000B10003170D080313B20003170F08031317
:100AF000B30031080C1E7A2D9900320803178D00BF
:100B00000313330803178F0083168C170C1400008F
:100B1000000083120C0D0E0D7F390319AA2D03134B
:100B2000B10003170D080313B20003170F080313D6
:100B3000B30031080C1E9A2D9900320803178D005E
:100B40000313330803178F008D0A03198F0A031349
:100B5000642D031703138A150A124728B101A70A47
:100B60002708213C03180F2E2A08FC3E0318D22D1B
:100B7000043E182EEF308316860083128600D22D95
:100B8000DF308316860083128600D22DBF30831695
:100B9000860083128600D22D7F3083168600831252
:100BA0008600D22D281CDE2D06080F390F3C031DB0
:100BB000DD2D28102908B100A9010E2E06080F39D5
:100BC0000F3C0319092E06080839031DE92DB2014F
:100BD000FD2D06080439031DF02D0130B200FD2D56
:100BE00006080239031DF72D0230B200FD2D06085C
:100BF0000139031DFD2D0330B200320DF700F70D52
:100C0000FC30F70577082A073920F800A9002814D6
:100C10000E2EAA0A2A08043C0319AA01A701FF30D4
:100C20008316860083123108F8008A150A124A28B2
:100C30000A108A140A158207BA2DC02DC62DCC2D94
:100C4000831603178C170C140000000003184F2E96
:100C500083120C087F390313B20003170D08031326
:100C6000B30003170F080313B4003208BA00EF24CF
:100C7000330803178D000313340803178F008316FE
:100C80008C170C140000000083120313B10B492EC3
:100C90004C2E831603174F2E6E2E831603178312C6
:100CA0000C0D0E0D7F390313B20003170D0803134B
:100CB000B30003170F080313B4003208BA00EF247F
:100CC000330803178D000313340803178F008D0AB0
:100CD00003198F0A03100313B10B202E080083168B
:100CE00003178C170C140000000003189F2E8312AA
:100CF0000C087F390313B20003170D080313B30068
:100D000003170F080313B40032080C1E852E990038
:100D1000330803178D000313340803178F0083165D
:100D20008C170C140000000083120313B10B992ED2
:100D30009C2E831603179F2EBF2E83160317831234
:100D40000C0D0E0D7F390313B20003170D080313AA
:100D5000B30003170F080313B40032080C1EAE2EA5
:100D60009900330803178D000313340803178F000D
:100D70008D0A03198F0A03100313B10B6F2E08009D
:100D80008E30F7003208F8003108F900FA01F8084F
:100D9000031DD42E7908F800F9010830F702F8088D
:100DA000031DD42EF701DC2E0310F81BDB2EF90DEA
:100DB000F80DF703D42EF8130800B9010408B800A1
:100DC0003910831B3914320EF038B400B407E23EF8
:100DD000B500323EB70032080F39B507B507B7077F
:100DE000E93EB600B607B607310E0F39B607B707AA
:100DF000B60DB70DB709B70D31080F39B707B40DE8
:100E00000730B3000A30B707B603031C032FB60739
:100E1000B503031C072FB507B403031C0B2FB4073E
:100E2000B303031C0F2F33308400831307303805BE
:100E30003813840737300402031938170008F70005
:100E4000031D2A2F381B2A2F381A3C2FB8192A2F96
:100E500020302D2FB81538123030F707B2010408B2
:100E6000B1003210831B32147708BA00EF24310826
:100E70008400831332188317840A381F1A2F08003E
:100E8000B9010408B8003910831B3914320EF03848
:100E9000B400B407E23EB500323EB70032080F3965
:100EA000B507B507B707E93EB600B607B607310E76
:100EB0000F39B607B707B60DB70DB709B70D31082B
:100EC0000F39B707B40D0730B3000A30B707B603C0
:100ED000031C662FB607B503031C6A2FB507B403BE
:100EE000031C6E2FB407B303031C722F333084002E
:100EF0008313073038053813840737300402031989
:100F000038170008F700031D8D2F381B8D2F381A56
:100F1000952FB8198D2F2030902FB81538123030FA
:100F2000F70777080C1E922F9900840A381F7D2F2F
:020F30000800B7
:10100000840183131F308305193083169900A6309D
:101010009800903083129800AC01AB01AE01AD0195
:10102000FF30AF0083161F149F141F159F11073048
:101030009C008312A7012810A901AA018A11862900
:101040008A158A11C7298A158A11CA298A15B801F1
:10105000B701B601B5018A111E238A1583168113C3
:101060000C308312BA008A11EF248A157E300317E0
:101070008D0000308F008A1103131C2D8A158230D9
:1010800003178D0000308F008A110313642D8A1519
:101090008A11AE2D8A157808B000B0080319A62968
:1010A0000C30BA008A11EF248A150130BB00BC0055
:1010B0008A11DD248A15873003178D0000308F00D8
:1010C000031006300313B1008A1120268A15300858
:1010D000BA008A11EF248A158C3003178D00003076
:1010E0008F00031006300313B1008A116F268A1592
:1010F00030080C1E792899000D300C1E7D289900AF
:101100000A300C1E812899003008413C031DDD285F
:10111000AB0A0319AC0A2C08B2002B08B1008A11E3
:10112000C0268A157708B1007808B2007908B300A4
:101130007A08B400B8003308B7003208B6003108A6
:10114000B5008A111E238A150130BB000230BC0095
:101150008A11DD248A15923003178D0000308F002C
:10116000031007300313B1008A1120268A151030AE
:1011700084002E08B2002D08B1008A11DD268A15E0
:10118000983003178D0000308F00031007300313D1
:10119000B1008A116F268A15103084002E08B20023
:1011A0002D08B1008A1140278A150D300C1ED62853
:1011B00099000A300C1EDA2899003008423C031DC1
:1011C00037292B080319AC03AB032C08B2002B08FA
:1011D000B1008A11C0268A157708B1007808B200DC
:1011E0007908B3007A08B400B8003308B7003208B1
:1011F000B6003108B5008A111E238A150130BB00E4
:101200000230BC008A11DD248A159F3003178D003F
:1012100000308F00031007300313B1008A1120261D
:101220008A15103084002E08B2002D08B1008A11F2
:10123000DD268A15A53003178D0000308F000310BE
:1012400007300313B1008A116F268A15103084000D
:101250002E08B2002D08B1008A1140278A150D30E2
:101260000C1E302999000A300C1E342999003008D0
:10127000433C031DA629AC01AB01AC08031DA42906
:101280002B08B43C031CA4292C08B2002B08B10085
:101290008A11C0268A157708B1007808B20079084B
:1012A000B3007A08B400B8003308B7003208B600BB
:1012B0003108B5008A111E238A150130BB000230A7
:1012C000BC008A11DD248A15AC3003178D00003074
:1012D0008F00031007300313B1008A1120268A15EE
:1012E000103084002E08B2002D08B1008A11DD26CE
:1012F0008A15B23003178D0000308F0003100730BD
:101300000313B1008A116F268A15103084002E084D
:10131000B2002D08B1008A1140278A150D300C1E2D
:101320008F2999000A300C1E932999000A30BB00BE
:101330008A11B9208A150C30BA008A11EF248A1557
:10134000AB0A0319AC0A3D29AC01AB014828630084
:02400E00713F00
:00000001FF
;PIC16F877A
;CRC=B19B  CREATED="12-dic-16 12:19"
