:020000040000FA
:1000000016EF00F0EA6A180EE96EEF500DE0060EEA
:10001000016E006A002EFED7012EFBD77B0E006E0C
:10002000002EFED7EF2EF3D788EF00F0F86AD09EAF
:10003000EA6AE96AC150C00B0F09C16E070EB46EBF
:10004000066A076AFF0E086E096E330E0A6E0B6EA3
:100050004F0E0C6E8F0E0D6EC70E0E6E0F6A010ED8
:10006000106E020E116E040E126E080E136E100E3C
:10007000146E200E156E400E166E800E176E000E5A
:10008000956E956A8C6A936E936A8A6A076A0750BE
:10009000070842E3036A0750100FE96E000E0320C1
:1000A000EA6EEFCF18F0956A18C08CFF066A06500A
:1000B000070829E3036A0750080FE96E000E0320C2
:1000C000EA6EEF50FF0A186E070ED8800654196EBC
:1000D00018C000F01950016E04E0D8900032012ED3
:1000E000FCD700A003D093928A8202D093928A9286
:1000F00093908A80100E006E002EFED70000939021
:100100008A90062AD4D793948A84050E186E7AD7DB
:0C01100093948A94072ABBD7B9D7030048
:020000040030CA
:0E000000200C1E1E008381000FC00FE00F4079
:00000001FF
;PIC18F4550
