:1000000000308A00D62800000A108A100A118207E0
:1000100028340C34013406340A108A100A1182077D
:100020004C34613462346F345434453443340034D6
:10003000253084008313000803192C280130F800B0
:10004000F701F70B2128F80B20284A30F700F70BAF
:1000500027282A28800B1E2800342C0EF039F700A0
:100060000F300805770488000000081437280810AE
:1000700000348810F03083168800831208150000C1
:10008000081400000808080E0F39AC000810000022
:10009000081400000808080E0F39AB0008100030E3
:1000A0008316880083122C0EF700F030F7057708CE
:1000B0002B04F8007808AB00AB1B3A28291C8810E9
:1000C0002918881400000811000008102A0EAB003F
:1000D0000F30AB052B08AC002D202A080F39AB00E0
:1000E000AC002D2000340030831688008312881065
:1000F000081108100F30A50018200130A3002308B4
:10010000033C031C8B280330AC002D200530A500D8
:100110001820A30A7F280230AC002D20A301230859
:10012000033C031C9C2823080420A400A9012408E4
:10013000AA003920A30A8F288A110A12E528260B63
:10014000A228A5284030A700A628A7010130250233
:10015000A70727088038A800A9012808AA00392085
:10016000003424080C3A0319BC28063A0319C428A1
:10017000023A0319CA28CF28A9010130AA00392060
:100180000230A5001820D5280130A5000230A600B5
:100190009F20D528A9011030AA003920D528013088
:1001A000A9002408AA003920D5280034840183132B
:1001B0001F30830583161F149F141F159F110730CE
:1001C0009C008312A101A20173280130A200220821
:1001D000023C031C0F290130A1002108103C031C24
:1001E0000D290C30A400B1202108A5002208A6008A
:1001F0009F20A30123080C20A30AF700A400B1202C
:1002000007302302031DFA280230A3009630A50010
:100210001820A30B0629A10AED28A20AE728E52841
:02022000630079
:02400E00713F00
:00000001FF
;PIC16F877A
