:1000000003308A000A2B0000FF00030E8301A100C9
:100010000A08A0008A010408A2007708A300780853
:10002000A4007908A5007A08A600831383128C30F7
:100030008400801E1D288C1A2E2822088400230884
:10004000F7002408F8002508F9002608FA0020081F
:100050008A00210E8300FF0E7F0E09008A110A120A
:1000600039280A108A100A11820728340C34013406
:1000700006348C1E39281A08A7008C128A110A121D
:100080001D28D3326E32A02A613974103D10252606
:100090007500D3326E32A02A613974103D102526C6
:1000A000F5060A00D232E332693B6510D530723A68
:1000B0003A10A5310000343084008313000803197E
:1000C0006F280130F800F701F70B6428F80B63285C
:1000D0004A30F700F70B6A286D28800B612808006A
:1000E0003B18742808127528081683160812831204
:1000F000BB187C2888127D288816831688128312E4
:100100003B198428081385280817831608138312BF
:10011000BB198C2888138D28881783168813000034
:1001200083128515831685119528831285118316F0
:10013000851183120800BC01831608160030831253
:10014000081A0130BC048316881600308312881AFE
:100150000130F7000310F70D7708BC048316081769
:1001600000308312081B0130F700F70DF70DFC304B
:10017000F7057708BC048316881700308312881BA4
:100180000130F700F70DF70DF70DF830F705770898
:10019000BC043C08F800080083168511851205117F
:1001A0008312851283168512081688160817881779
:1001B0008312051583160511000083128515831619
:1001C0008511000083129B207808BB0085118316DF
:1001D0008511000083128515831685110000831296
:1001E0009B207808BA0085118316851108128812A1
:1001F0000813881383123B0EF700F030F7057708D9
:100200003A04F8007808BA00BA1F08298316D428DF
:10021000B808031D0D2985120E298516831685122F
:100220000000831205118316051100008312851149
:10023000831685118312390EBA000F30BA053A08B9
:10024000BB00702039080F39BA00BB0070200800CD
:100250008316081288120813881385118512051158
:1002600083128512831685128312051183160511D8
:1002700083128511831685110F308312B4005B2021
:100280000130AA002A08033C031C50290330BB009C
:100290007020BB0170200530B4005B20AA0A4229FF
:1002A0000230BB007020BB0170200530B4005B2021
:1002B000AA012A08033C031C66292A083120AB0046
:1002C000B8012B08B900CC20AA0A59298A110A12B0
:1002D0002E2B350B6C296F294030B6007029B601E2
:1002E00001303402B60736088038B700B801370845
:1002F000B900CC2008003308073A031989290B3AC2
:1003000003198E29063A03199629023A03199C29E2
:10031000A1290130B400B5006921A729B801013035
:10032000B900CC200230B4005B20A7290130B40012
:100330000230B5006921A729B8011030B900CC20DE
:10034000A7290130B8003308B900CC20A72908003C
:10035000831603178C170C14000000000318D7290C
:1003600083120C087F390313AB0003170D08031326
:10037000AC0003170F080313AD002B08B3007B215B
:100380002C0803178D0003132D0803178F00831605
:100390008C170C140000000083120313AA0BD12940
:1003A000D42983160317D729F62983160317831236
:1003B0000C0D0E0D7F390313AB0003170D0803134B
:1003C000AC0003170F080313AD002B08B3007B210B
:1003D0002C0803178D0003132D0803178F008D0AB7
:1003E00003198F0A03100313AA0BA8290800B201EE
:1003F0000408B1003210831B32142B0EF038AD000C
:10040000AD07E23EAE00323EB0002B080F39AE071A
:10041000AE07B007E93EAF00AF07AF072A0E0F39AE
:10042000AF07B007AF0DB00DB009B00D2A080F39F6
:10043000B007AD0D0730AC000A30B007AF03031CA6
:100440001D2AAF07AE03031C212AAE07AD03031C10
:10045000252AAD07AC03031C292A2C308400831302
:100460000730310531138407303004020319311786
:100470000008F700031D442A311B442A311A562A6A
:10048000B119442A2030472AB11531123030F7070C
:10049000AB010408AA002B10831B2B147708B300B0
:1004A0007B212A08840083132B188317840A311FA9
:1004B000342A8A110A12572B831603178C170C142F
:1004C0000000000003188C2A83120C087F390313E4
:1004D000AB0003170D080313AC0003170F08031339
:1004E000AD002B080C1E722A99002C0803178D00F2
:1004F00003132D0803178F0083168C170C140000AC
:10050000000083120313AA0B862A892A8316031775
:100510008C2AAC2A8316031783120C0D0E0D7F391B
:100520000313AB0003170D080313AC0003170F08E8
:100530000313AD002B080C1E9B2A99002C080317EF
:100540008D0003132D0803178F008D0A03198F0ADE
:1005500003100313AA0B5C2A8A110A12612BB20141
:100560000408B1003210831B32142B0EF038AD009A
:10057000AD07E23EAE00323EB0002B080F39AE07A9
:10058000AE07B007E93EAF00AF07AF072A0E0F393D
:10059000AF07B007AF0DB00DB009B00D2A080F3985
:1005A000B007AD0D0730AC000A30B007AF03031C35
:1005B000D52AAF07AE03031CD92AAE07AD03031C2F
:1005C000DD2AAD07AC03031CE12A2C308400831321
:1005D0000730310531138407303004020319311715
:1005E0000008F700031DFC2A311BFC2A311A042BDA
:1005F000B119FC2A2030FF2AB11531123030F7072B
:1006000077080C1E012B9900840A311FEC2A8A11ED
:100610000A12682B840183131F3083051930831657
:100620009900A63098009030831298002D30A700D2
:1006300083161F149F141F159F1107309C001F1352
:1006400083121F179F1783169F1783121F14831679
:100650001F109F101F159F11831228290030F800CA
:100660001F08C73978049F000630F700F70B362BB8
:1006700000001F151F193A2B83161E088312A800AD
:100680001E08A9000130B400B500692141300317EC
:100690008D0000308F0003100C300313AA00A82136
:1006A000103084002908AB002808AA00F729493037
:1006B00003178D0000308F0003100C300313AA00C5
:1006C0005C2A103084002908AB002808AA00AF2A51
:1006D0000D300C1E692B99000A300C1E6D2B9900F1
:1006E0000130B4000230B5006921523003178D008B
:1006F00000308F0003100E300313AA00A821270832
:10070000B3007B216430B4005B200C30B3007B214C
:040710002E2B630029
:02400E00713F00
:00000001FF
;PIC16F877A
;CRC=43BB  CREATED="17-Dic.-16 00:30"
