:1000000000308A004C2900000A108A100A11820769
:1000100028340C34013406340A108A100A1182077D
:1000200045346A3465346D3470346C346F34323432
:1000300000340A108A100A11820763346F346E3458
:10004000743465346F343A34203425346C34753468
:1000500000342E3084008313000803193D2801303A
:10006000F800F701F70B3228F80B31284A30F70077
:10007000F70B38283B28800B2F280034350EF03939
:10008000F7000F300805770488000000081448289E
:10009000081000348810F030831688008312081589
:1000A0000000081400000808080E0F39B5000810F9
:1000B0000000081400000808080E0F39B4000810EA
:1000C0000030831688008312350EF700F030F705F4
:1000D00077083404F8007808B400B41B4B28321CAD
:1000E0008810321888140000081100000810330E20
:1000F000B4000F30B4053408B5003E2033080F3982
:10010000B400B5003E20003400308316880083120E
:100110008810081108100F30AE0029200130A3000C
:100120002308033C031C9C280330B5003E20053007
:10013000AE002920A30A90280230B5003E20A3017A
:100140002308033C031CAD2823080420A400B201AB
:100150002408B3004A20A30AA0288A110A125B29A6
:100160002F0BB328B6284030B000B728B0010130BB
:100170002E02B00730088038B100B2013108B30058
:100180004A2000342D080C3A0319CD28063A0319E9
:10019000D528023A0319DB28E028B2010130B30068
:1001A0004A200230AE002920E6280130AE0002309D
:1001B000AF00B020E628B2011030B3004A20E62894
:1001C0000130B2002D08B3004A20E6280034AC010B
:1001D0000408AB002C10831B2C14250EF038A7004C
:1001E000A707E23EA800323EAA0025080F39A8075B
:1001F000A807AA07E93EA900A907A907240E0F39F5
:10020000A907AA07A90DAA0DAA09AA0D24080F3942
:10021000AA07A70D0730A6000A30AA07A903031CE6
:100220000D29A907A803031C1129A807A703031C6C
:100230001529A707A603031C192926308400831358
:1002400007302B052B1384072A30040203192B17C0
:100250000008F700031D34292B1B34292B1A4629CB
:10026000AB19342920303729AB152B123030F70762
:10027000A5010408A4002510831B25147708AD00F0
:10028000C22024088400831325188317840A2B1F97
:1002900024298A110A128929840183131F308305B6
:1002A00083161F149F141F159F1107309C00831283
:1002B000A101A2018428A201A101A208031D902985
:1002C0002108643C031C90290C30AD00C220A3011E
:1002D00023080C20A30AF700AD00C2200830230237
:1002E000031D68290130AE000230AF00B020A30129
:1002F00023081920A30AF700AD00C220083023020A
:10030000031D7829103084002208A5002108A400CC
:10031000E7283230AE002920A10A0319A20A5D297C
:040320005B296300F2
:02400E00713F00
:00000001FF
;PIC16F877A
