:1000000000308A00DB2800000A108A100A118207DB
:1000100028340C34013406340A108A100A1182077D
:1000200048346F346C34613420344C34613462347D
:100030006F34543445344334003423308400831304
:100040000008031931280130F800F701F70B2628C2
:10005000F80B25284A30F700F70B2C282F28800BA7
:10006000232800342A0EF039F7000F3008057704F2
:100070008800000008143C28081000348810F03074
:100080008316880083120815000008140000080871
:10009000080E0F39AA000810000008140000080814
:1000A000080E0F39A900081000308316880083124B
:1000B0002A0EF700F030F70577082904F8007808D1
:1000C000A900A91B3F28271C8810271888140000A6
:1000D000081100000810280EA9000F30A9052908F2
:1000E000AA00322028080F39A900AA0032200034C3
:1000F00000308316880083128810081108100F3012
:10010000A3001D200130A1002108033C031C9028FE
:100110000330AA0032200530A3001D20A10A842844
:100120000230AA003220A1012108033C031CA128AF
:1001300021080420A200A7012208A8003E20A10A4D
:1001400094288A110A12E82822080C3A0319AF28C9
:10015000063A0319B728023A0319CD28D228A70175
:100160000130A8003E200230A3001D20D828013015
:10017000A3000230A400240BBE28C1284030A500F3
:10018000C228A50101302302A50725088038A60052
:10019000A7012608A8003E20D828A7011030A800F3
:1001A0003E20D8280130A7002208A8003E20D828E9
:1001B0008A110A12EF28840183131F3083058316E6
:1001C0001F149F141F159F1107309C00831278285D
:1001D000A10121080C20A10AF700A200A4280C30DC
:0A01E0002102031DE928F328630043
:02400E00713F00
:00000001FF
;PIC16F877A
