:1000000000308A00B0280000FF00030E8301A10029
:100010000A08A0008A010408A2007708A300780853
:10002000A4007908A5007A08A600831383128C30F7
:100030008400801E1D288C1A2E2822088400230884
:10004000F7002408F8002508F9002608FA0020081F
:100050008A00210E8300FF0E7F0E09008A110A120A
:1000600031288C1E31281A08A7008C128A110A1216
:100070001D28413265366137F4320D050000412AF2
:10008000D220D3060A00C422D2224324C1060A0089
:10009000492DD12AC9225222C1060A004128C12372
:1000A00041290D050000831603178C170C1400005E
:1000B000000083120C087F39031999280313A90043
:1000C00003170D080313AA0003170F080313AB004F
:1000D00029080C1E692899002A0803178D000313AC
:1000E0002B0803178F0083168C170C1400000000D8
:1000F00083120C0D0E0D7F39031999280313A900E3
:1001000003170D080313AA0003170F080313AB000E
:1001100029080C1E892899002A0803178D0003134B
:100120002B0803178F008D0A03198F0A0313532816
:100130000317031308002A308400831300080319EF
:10014000AF280130F800F701F70BA428F80BA3281B
:100150004A30F700F70BAA28AD28800BA128080029
:10016000840183131F308305193083169900A6304C
:100170009800903083129800FF30A80083161F1457
:100180009F141F159F1107309C0040308700831279
:10019000A80083168C16C03083128B042810280800
:1001A0008316870083120710A8102808831687007B
:1001B00083128710281128088316870083120711DD
:1001C000A811280883168700831287112708413C4D
:1001D000031D1029393003178D0000308F000313E1
:1001E0005320281028088316870083120714A810AC
:1001F0002808831687008312871028112808831681
:10020000870083120715A811280883168700831218
:1002100087110230A9009630AA009B20A90B0B2958
:100220002708423C031D3A293F3003178D00003058
:100230008F00031353202810280883168700831289
:100240000710A81028088316870083128714281126
:1002500028088316870083120711A811280883161F
:100260008700831287150230A9009630AA009B20D0
:10027000A90B35292708633C031D78294330031750
:100280008D0000308F000313532028102808831698
:10029000870083120710A81028088316870083128E
:1002A0008710281128088316870083120715A811C4
:1002B000280883168700831287116430AA009B20C8
:1002C000281028088316870083120714A81028080E
:1002D0008316870083128710281128088316870049
:1002E00083120715A8112808831687008312871127
:1002F0002708443C031DB629483003178D00003001
:100300008F000313532028102808831687008312B8
:100310000714A81028088316870083128710281155
:1003200028088316870083120711A811280883164E
:100330008700831287116430AA009B2028102808A8
:100340008316870083120714A810280883168700D5
:100350008312871028112808831687008312071537
:10036000A811280883168700831287112708453CA7
:10037000031DD9294E3003178D0000308F00031361
:100380005320281028088316870083120710A8100E
:1003900028088316870083128710281128088316DF
:1003A000870083120711A81128088316870083127B
:0603B0008711E62863003E
:02400E00713F00
:00000001FF
;PIC16F877A
;CRC=4FBD  CREATED="17-Dic.-16 01:30"
