:1000000004308A00082C00000A108A100A118207A6
:1000100028340C3401340634E434733ABD126600DB
:100020000130831687008312A400A41024088316CD
:10003000870083128710B53090008A110A121B2C9A
:100040003930840083130008031934280130F80084
:10005000F701F70B2928F80B28284A30F700F70B8F
:100060002F283228800B262808004018392808122B
:100070003A280816831608128312C01841288812DD
:1000800042288816831688128312401949280813BB
:100090004A280817831608138312C0195128881399
:1000A000522888178316881300008312851583163B
:1000B00085115A2883128511831685118312080031
:1000C000C1018316081600308312081A0130C104DA
:1000D0008316881600308312881A0130F700031047
:1000E000F70D7708C1048316081700308312081B28
:1000F0000130F700F70DF70DFC30F7057708C10464
:100100008316881700308312881B0130F700F70D23
:10011000F70DF70DF830F7057708C1044108F8002E
:100120000800831685118512051183128512831626
:100130008512081688160817881783120515831666
:1001400005110000831285158316851100008312A6
:1001500060207808C0008511831685110000831285
:100160008515831685110000831260207808BF0072
:1001700085118316851108128812081388138312BB
:10018000400EF700F030F70577083F04F8007808D4
:10019000BF00BF1FCD2883169928BD08031DD22894
:1001A0008512D32885168316851200008312051147
:1001B00083160511000083128511831685118312A1
:1001C0003E0EBF000F30BF053F08C00035203E087F
:1001D0000F39BF00C00035200800831608128812AE
:1001E0000813881385118512051183128512831651
:1001F000851283120511831605118312851183164A
:1002000085110F308312B90020200130AB002B087C
:10021000033C031C15290330C0003520C0013520E4
:100220000530B9002020AB0A07290230C000352074
:10023000C00135200530B9002020AB012B08033C5C
:10024000031C2B292B080420AC00BD012C08BE0088
:100250009120AB0A1E298A110A121C2CA410240812
:1002600083168700831287140630F700F70B3629B0
:100270000000A4102408831687008312871024141A
:100280002408831687008312071C3F298F018E01E3
:1002900024142408831687008312071C6E290F0874
:1002A000FA000E08F7000F087A02031D4F2977089D
:1002B000AB007A08AC002C080A3C03186D29FF3A01
:1002C000031D66292B08B83C03186D290B30AC00C0
:1002D000B830AB008F018E016E2948298F018E0145
:1002E0002B08F8002C08F9008A110A121D2C380876
:1002F0000319E729C0003C080319E729C0070318C0
:1003000088297F30C002031CE7290319E7298C29BB
:100310008130C0070318E7294008F700F801F90108
:10032000FA013908C400C4173A08C3003B08C200E8
:100330001830C000C101421CB5293F08FA07031C50
:10034000A729F90A031DA729F80A0319C1173E08AE
:10035000F907031CAE29F80A0319C1173D08BA00B2
:10036000BA173A08F8070318C117C10DF80CF90CB1
:10037000FA0CC40CC30CC20C0310C00B9A29013038
:10038000F7070318E729F81BCC29C40DFA0DF90D5E
:10039000F80DF7030319E729C41FDD29FA0A031D25
:1003A000DD29F90A031DDD29F80A031DDD29F80CF2
:1003B000F90CFA0CF70A0319E7293908C1003D08BE
:1003C000C106C11FE529F817EB29F813EB29F7013E
:1003D000F801F901FA0108002C08B2002B08B1005D
:1003E0008E30F7003208F8003108F900FA01F808F9
:1003F000031D042A7908F800F9010830F702F8080B
:10040000031D042AF7010C2A0310F81B0B2AF90D0F
:10041000F80DF703042AF8137A08BB007908BA002C
:100420007808B9007708B8009630BF004330BE00A6
:100430000B30BD007C30BC0077217708B100780814
:10044000B2007908B3007A08B400BB007908BA009A
:100450007808B9007708B8006630BF00BE000630E3
:10046000BD007F30BC0077217A08B0007908AF006A
:100470007808AE007708AD002D08F7002E08F800C8
:100480002F08F9003008FA008A110A12262C3A0BBC
:100490004A2A4D2A4030BB004E2ABB0101303902A6
:1004A000BB073B088038BC00BD013C08BE00912062
:1004B00008003808073A0319672A0B3A03196C2A0F
:1004C000063A0319742A023A03197A2A7F2A01305C
:1004D000B900BA004722852ABD010130BE00912033
:1004E0000230B9002020852A0130B9000230BA005C
:1004F0004722852ABD011030BE009120852A013097
:10050000BD003808BE009120852A08008316031715
:100510008C170C14000000000318B52A83120C0875
:100520007F390313AC0003170D080313AD00031745
:100530000F080313AE002C08B80059222D0803172A
:100540008D0003132E0803178F0083168C170C14CD
:100550000000000083120313AB0BAF2AB22A8316EC
:100560000317B52AD42A8316031783120C0D0E0D18
:100570007F390313AC0003170D080313AD000317F5
:100580000F080313AE002C08B80059222D080317DA
:100590008D0003132E0803178F008D0A03198F0A8D
:1005A00003100313AB0B862A8A110A12382C831806
:1005B000DC2A403084008313F701F801F901FA01C5
:1005C000C001C101C201C3013F083E043D043C0417
:1005D00003191A2B2030C4000310B80DB90DBA0D41
:1005E000BB0DC00DC10DC20DC30D3F084302031D5D
:1005F000032B3E084202031D032B3D084102031D4D
:10060000032B3C084002031C142B3C08C0023D088D
:10061000031C3D0FC1023E08031C3E0FC2023F08EF
:10062000031C3F0FC3020314F70DF80DF90DFA0D6B
:10063000C40BEC2A40088000840A41088000840A28
:1006400042088000840A4308800008000408B000C3
:100650002F08B2000319452B2E08BB002D08BA0045
:100660002C08B9002B08B800BF01BE012030BD0026
:100670008230BC0077217A08AE007908AD00780896
:10068000AC007708AB00B20B2C2B2E08BB002D085A
:10069000BA002C08B9002B08B8003808B63CB800DE
:1006A000FA013908BC00B9170310B90CBA0CBB0C1D
:1006B000FA0CF90CF80CF70CB80B542BBC1F6B2B75
:1006C000F709F809F909FA09F70A0319F80A0319E9
:1006D000F90A0319FA0A7A08AE007908AD00780819
:1006E000AC007708AB00AE1F822BB003B016AB098D
:1006F000AC09AD09AE09AB0A0319AC0A0319AD0A7E
:100700000319AE0A3B30B7009A30B600CA30B500C4
:10071000B4010A30B2002F080319B00A83142B3039
:10072000840083132E08BB002D08BA002C08B900E2
:100730002B08B8003708BF003608BE003508BD00DA
:100740003408BC00D7227808F708031DBA2B2F0AFB
:1007500032020319BA2B30080319BC2B0F393202AD
:100760000319B42B0318EC2BB01BEC2B301BBC2B48
:100770002030E82B2030B005B01ECA2BB0122F0855
:10078000031DB0037708B0002D30B800592230089F
:10079000F700B0012F083202031DD82B7708B000F4
:1007A0002E30B80059223008F7002030B005003054
:1007B0003030B01EE82BB0122F08031DB0037708AD
:1007C000B0002D30B80059223008F700B0013030A9
:1007D000F7077708B800592283103708BB0036089E
:1007E000BA003508B9003408B800BF01BE01BD0128
:1007F0000A30BC00D7227A08B7007908B60078081A
:10080000B5007708B400B20B8E2B8A110A12452C62
:10081000840183131F308305FF30A40083161F1447
:100820009F141F159F1107309C008312A0012110F7
:10083000A201A3011028ED282E297908A600780826
:10084000A5002608AC002508AB00EC297A08AA0010
:100850007908A9007808A8007708A7000C300317CA
:100860008D0000308F00031005300313AB00862A83
:10087000893084002A08AE002908AD002808AC00A1
:100880002708AB000230AF00262B0230AB009630B9
:10089000B9002020AB0B472C0C30B80059221C2C7F
:0208A0006300F3
:02400E00713F00
:00000001FF
;PIC16F877A
;CRC=5600  CREATED="12-dic-16 12:49"
