:1000000000308A00B4280000FF00030E8301A10025
:100010000A08A0008A010408A2007708A300780853
:10002000A4007908A5007A08A6007B08A70083131E
:1000300083128C308400801C1F288C1832282208E0
:1000400084002308F7002408F8002508F900260892
:10005000FA002708FB0020088A00210E8300FF0E0B
:100060007F0E09008A110A1249281230B002031CBF
:100070004828303084008313FC3080050310800C46
:10008000800C00080319482846280000800B4528EA
:1000900000342C102C0883168700831207142908BB
:1000A000B0002808AF00B2016430B1001030B300D6
:1000B000F701FA01B00CAF0C031C64283108F707F4
:1000C0000318FA0A3208FA07FA0CF70CF90CF80CC4
:1000D000B30B5A2878082C3EAA007908AB000130EF
:1000E00003180230AB072B08AF00AF0AAF030319A8
:1000F0007D28FF30B000352076282A08B000352052
:100100002C102C0883168700831207108C108A117C
:100110000A121F288030831687008312AC007830C3
:10012000F800063892004E30831692008C14C030CE
:1001300083128B048A110A12C9282E30840083137B
:1001400000080319B1280130F800F701F70BA628C1
:10015000F80BA5284A30F700F70BAC28AF28800B26
:10016000A3288A110A12D728840183131F3083051C
:1001700083161F149F141F159F1107309C008312B4
:10018000A801A9012C30AA000130AB00FF30AC005F
:100190008A28A901A801A908031DDD282808113C07
:1001A000031CDD280230AD00FA30AE009D28AD0BF7
:0E01B000D428A80A0319A90ACB28C92863007D
:02400E00713F00
:00000001FF
;PIC16F877A
