:1000000000308A00232900000A108A100A11820792
:1000100028340C3401340634223084008313000861
:10002000031920280130F800F701F70B1528F80B09
:1000300014284A30F700F70B1B281E28800B1228C3
:100040000034290EF039F7000F30080577048800D6
:10005000000008142B28081000348810F030831694
:100060008800831208150000081400000808080E14
:100070000F39A90008100000081400000808080E35
:100080000F39A80008100030831688008312290E4B
:10009000F700F030F70577082804F8007808A80082
:1000A000A81B2E28261C881026188814000008116A
:1000B00000000810270EA8000F30A8052808A90086
:1000C000212027080F39A800A90021200034003082
:1000D0008316880083128810081108100F30A200C0
:1000E0000C200130A1002108033C031C7F280330B1
:1000F000A90021200530A2000C20A10A732802309B
:10010000A9002120A1012108033C031C90282108FB
:100110000420A200A6012208A7002D20A10A8328FE
:100120008A110A123029A6014030A7002D20013083
:10013000A6000E30A7002D200130A6000E30A7002B
:100140002D200130A6000E30A7002D200130A60082
:100150000430A7002D200130A6001F30A7002D205D
:100160000130A6000430A7002D200130A6000A307F
:10017000A7002D200130A6001130A7002D20A601D8
:100180004830A7002D200130A6000E30A7002D20FA
:100190000130A6000E30A7002D200130A6000E3041
:1001A000A7002D200130A6000430A7002D2001302B
:1001B000A6001F30A7002D200130A6000430A700A4
:1001C0002D200130A6000E30A7002D200130A60002
:1001D0001F30A7002D208A110A12312921080C3A5C
:1001E0000319F928063A03190129023A03191729B4
:1001F0001C29A6010130A7002D200230A2000C20EE
:1002000022290130A2000230A300230B08290B2968
:100210004030A4000C29A40101302202A4072408C4
:100220008038A500A6012508A7002D202229A601B7
:100230001030A7002D2022290130A6002108A70098
:100240002D2022290034840183131F308305831657
:100250001F149F141F159F1107309C0083126728DD
:1002600093280C30A100EE20A101EE200130A10066
:06027000EE2039296300B5
:02400E00713F00
:00000001FF
;PIC16F877A
