:1000000000308A00B9280000781D252675102D10B3
:10001000791D252675100D050000AD010408AC0002
:100020002D10831B2D14260EF038A800A807E23EE1
:10003000A900323EAB0026080F39A907A907AB0774
:10004000E93EAA00AA07AA07250E0F39AA07AB079F
:10005000AA0DAB0DAB09AB0D25080F39AB07A80DE9
:100060000730A7000A30AB07AA03031C3328AA07EE
:10007000A903031C3728A907A803031C3B28A807CA
:10008000A703031C3F2827308400831307302C0567
:100090002C1384072B30040203192C170008F700D7
:1000A000031D5A282C1B5A282C1A6228AC195A28CE
:1000B00020305D28AC152C123030F70777080C1E65
:1000C0005F289900840A2C1F4A280800831603170A
:1000D0008C170C14000000000318962883120C08DB
:1000E0007F390313A60003170D080313A700031796
:1000F0000F080313A80026080C1E7C289900270867
:1001000003178D000313280803178F0083168C171D
:100110000C140000000083120313A50B90289328F1
:10012000831603179628B6288316031783120C0D1F
:100130000E0D7F390313A60003170D080313A70044
:1001400003170F080313A80026080C1EA528990002
:10015000270803178D000313280803178F008D0A43
:1001600003198F0A03100313A50B66288A110A12BC
:100170001B29840183131F308305193083169900CE
:10018000A630980090308312980083161F149F1495
:100190001F159F1107309C001F1383121F179F17F5
:1001A00083169F1783121F1483161F109F101F158D
:1001B0009F110030F80083121F08C73978049F0090
:1001C0000630F700F70BE22800001F151F19E6287C
:1001D00083161E088312A1001E08A2000830F80032
:1001E0001F08C73978049F000630F700F70BF62880
:1001F00000001F151F19FA2883161E088312A3007A
:100200001E08A40078300C1E032999003A300C1EF9
:1002100007299900103084002208A6002108A500B3
:100220000D20063003178D0000308F0003140530B9
:100230000313A5006628103084002408A6002308B4
:10024000A5000D2020300C1E232999000D300C1E16
:10025000272999000A300C1E2B2999008316D928CA
:02026000630039
:02400E00713F00
:00000001FF
;PIC16F877A
;CRC=7B4D  CREATED="16-dic-16 22:03"
